{
    "abi": [
        {
            "type": "constructor",
            "inputs": [],
            "stateMutability": "nonpayable"
        },
        {
            "type": "function",
            "name": "getCount",
            "inputs": [],
            "outputs": [
                {
                    "name": "",
                    "type": "uint256",
                    "internalType": "uint256"
                }
            ],
            "stateMutability": "view"
        },
        {
            "type": "function",
            "name": "increment",
            "inputs": [],
            "outputs": [],
            "stateMutability": "nonpayable"
        },
        {
            "type": "event",
            "name": "CounterIncremented",
            "inputs": [
                {
                    "name": "newCount",
                    "type": "uint256",
                    "indexed": true,
                    "internalType": "uint256"
                },
                {
                    "name": "incrementedBy",
                    "type": "address",
                    "indexed": true,
                    "internalType": "address"
                }
            ],
            "anonymous": false
        }
    ],
    "bytecode": {
        "object": "0x6080604052348015600e575f5ffd5b505f5f819055506101a0806100225f395ff3fe608060405234801561000f575f5ffd5b5060043610610034575f3560e01c8063a87d942c14610038578063d09de08a14610056575b5f5ffd5b610040610060565b60405161004d91906100dd565b60405180910390f35b61005e610068565b005b5f5f54905090565b5f5f81548092919061007990610123565b91905055503373ffffffffffffffffffffffffffffffffffffffff165f547f721c20121297512b72821b97f5326877ea8ecf4bb9948fea5bfcb6453074d37f60405160405180910390a3565b5f819050919050565b6100d7816100c5565b82525050565b5f6020820190506100f05f8301846100ce565b92915050565b7f4e487b71000000000000000000000000000000000000000000000000000000005f52601160045260245ffd5b5f61012d826100c5565b91507fffffffffffffffffffffffffffffffffffffffffffffffffffffffffffffffff820361015f5761015e6100f6565b5b60018201905091905056fea26469706673582212201296cdf4f08733186c1847b806f4405945cbfbe4b96b58bed7241429ade9f88a64736f6c634300081e0033",
        "linkReferences": {}
    },
    "methodIdentifiers": {
        "getCount()": "a87d942c",
        "increment()": "d09de08a"
    },
    "id": 21
}